:100000000C942A000C948B020C948B020C948B029F
:100010000C948B020C948B020C948B020C948B022C
:100020000C948B020C948B020C9452010C947C0166
:100030000C948B020C948B020C948B020C948B020C
:100040000C948B020C948B020C948B020C948B02FC
:100050000C948B0211241FBECFE5D8E0DEBFCDBFCC
:10006000E4E5F0E040E017C0B591A5913591259108
:10007000059107FD0CC095918591EF01F92FE82FAF
:1000800005900D92A217B307D9F7FE0104C01D9287
:10009000A217B307E1F7E435F40731F70E948602AF
:0800A0000C943002F894FFCF2C
:1000A800442319F04130E9F174C0813099F028F007
:1000B8008230E9F0833041F16EC02AB381E090E0EC
:1000C80002C0880F991F6A95E2F7809582238ABB40
:1000D80081E0089527B381E090E002C0880F991F5E
:1000E8006A95E2F78095822387BB81E0089524B35F
:1000F80081E090E002C0880F991F6A95E2F7809529
:10010800822384BB81E0089521B381E090E002C09E
:10011800880F991F6A95E2F78095822381BB81E059
:100128000895813091F028F08230D9F0833029F198
:1001380034C02AB381E090E002C0880F991F6A9505
:10014800E2F7822B8ABB81E0089527B381E090E033
:1001580002C0880F991F6A95E2F7822B87BB81E05E
:10016800089524B381E090E002C0880F991F6A9532
:10017800E2F7822B84BB81E0089521B381E090E00F
:1001880002C0880F991F6A95E2F7822B81BB81E034
:0E019800089581E0089580E0089580E00895C4
:1001A600442319F04130E9F174C0813099F028F008
:1001B6008230E9F0833041F16EC02BB381E090E0EC
:1001C60002C0880F991F6A95E2F7809582238BBB40
:1001D60081E0089528B381E090E002C0880F991F5E
:1001E6006A95E2F78095822388BB81E0089525B35E
:1001F60081E090E002C0880F991F6A95E2F780952A
:10020600822385BB81E0089522B381E090E002C09D
:10021600880F991F6A95E2F78095822382BB81E059
:100226000895813091F028F08230D9F0833029F199
:1002360034C02BB381E090E002C0880F991F6A9505
:10024600E2F7822B8BBB81E0089528B381E090E032
:1002560002C0880F991F6A95E2F7822B88BB81E05E
:10026600089525B381E090E002C0880F991F6A9532
:10027600E2F7822B85BB81E0089522B381E090E00E
:1002860002C0880F991F6A95E2F7822B82BB81E034
:0E029600089581E0089580E0089580E00895C5
:1002A4001F920F920FB60F9211242F933F934F93E7
:1002B4005F936F937F938F939F93AF93BF93EF93CA
:1002C400FF930E9468020E9442020E945C020E9404
:1002D4008002FF91EF91BF91AF919F918F917F9198
:1002E4006F915F914F913F912F910F900FBE0F909F
:0402F4001F901895AA
:1002F8001F920F920FB60F9211242F933F934F9393
:100308005F936F937F938F939F93AF93BF93EF9375
:10031800FF930E946E020E9449020E9456020E94A8
:100328007A02FF91EF91BF91AF919F918F917F9149
:100338006F915F914F913F912F910F900FBE0F904A
:040348001F90189555
:10034C00CF93DF93C1E0D0E00AC08C2F0E9418023B
:10035C008FE39CE90197F1F700C000002196C436A9
:10036C00D1059CF3C3E6D0E00AC08C2F0E94180282
:10037C008FE39CE90197F1F700C0000021971C1650
:0A038C001D069CF3DF91CF91089548
:100396009FB7982B9FBF803829F40FB607FC08C07B
:1003A60080E00895811106C00FB607FE05C00895C6
:0C03B60081E0089580E0089581E0089542
:1003C20097FB072E16F4009407D077FD09D00E9400
:1003D200F50107FC05D03EF4909581959F4F089555
:0803E200709561957F4F0895AD
:1003EA00AA1BBB1B51E107C0AA1FBB1FA617B70751
:1003FA0010F0A61BB70B881F991F5A95A9F780956D
:08040A009095BC01CD0108959D
:1004120041E063E081E00E94540080E80E94CB0149
:0E0422008BE683BF12BE83E089BF1CBE089527
:10043000853648F4982F80E064E670E00E94E10180
:0A04400061506CBF08951CBE0895C2
:10044A000E9462020E943B020E9450020E947402B1
:06045A000E940902089552
:10046000EC010E9490020E948F02CE010E94910234
:06047000CE010E948D0286
:0E04760041E065E080E00E94540081E00895BE
:0E04840041E065E080E00E94D30081E0089531
:0E04920040E065E080E00E94D30081E0089524
:0C04A00041E064E080E00E9454000895F8
:0C04AC0041E064E080E00E94D30008956D
:0C04B80040E064E080E00E94D300089562
:0C04C40041E067E081E00E9454000895D0
:0C04D00041E067E081E00E94D300089545
:0C04DC0040E067E081E00E94D30008953A
:0C04E80041E066E080E00E9454000895AE
:0C04F40041E066E080E00E94D300089523
:0C05000040E066E080E00E94D300089517
:0A050C000E9425020E94A601FDCF07
:040516000C94000041
:04051A000E945200E9
:02051E0008953E
:0205200008953C
:0205220008953A
:00000001FF
