:100000000C942D000C941D040C941D040C941D04E0
:100010000C941D040C941D040C941D040C941D04DC
:100020000C941D040C941D040C941D040C947D026E
:100030000C941D040C941D040C941D040C941D04BC
:100040000C941D040C941D040C941D040C941D04AC
:100050000C941D0400600065800011241FBECFE5D4
:10006000D8E0DEBFCDBFE4E5F0E040E017C0B591D9
:10007000A59135912591059107FD0CC0959185912C
:10008000EF01F92FE82F05900D92A217B307D9F7CA
:10009000FE0104C01D92A217B307E1F7E935F4078A
:0E00A00031F70E940F040C94C603F894FFCFB2
:1000AE004F46462053544154450052454144592031
:1000BE0053544154450049474E4954494F4E2053DD
:0500CE005441544500FF
:1000D400442319F04130E9F174C0813099F028F0DB
:1000E4008230E9F0833041F16EC02AB381E090E0C0
:1000F40002C0880F991F6A95E2F7809582238ABB14
:1001040081E0089527B381E090E002C0880F991F31
:100114006A95E2F78095822387BB81E0089524B332
:1001240081E090E002C0880F991F6A95E2F78095FC
:10013400822384BB81E0089521B381E090E002C072
:10014400880F991F6A95E2F78095822381BB81E02D
:100154000895813091F028F08230D9F0833029F16C
:1001640034C02AB381E090E002C0880F991F6A95D9
:10017400E2F7822B8ABB81E0089527B381E090E007
:1001840002C0880F991F6A95E2F7822B87BB81E032
:10019400089524B381E090E002C0880F991F6A9506
:1001A400E2F7822B84BB81E0089521B381E090E0E3
:1001B40002C0880F991F6A95E2F7822B81BB81E008
:0E01C400089581E0089580E0089580E0089598
:1001D200442319F04130E9F174C0813099F028F0DC
:1001E2008230E9F0833041F16EC02BB381E090E0C0
:1001F20002C0880F991F6A95E2F7809582238BBB14
:1002020081E0089528B381E090E002C0880F991F31
:100212006A95E2F78095822388BB81E0089525B331
:1002220081E090E002C0880F991F6A95E2F78095FD
:10023200822385BB81E0089522B381E090E002C071
:10024200880F991F6A95E2F78095822382BB81E02D
:100252000895813091F028F08230D9F0833029F16D
:1002620034C02BB381E090E002C0880F991F6A95D9
:10027200E2F7822B8BBB81E0089528B381E090E006
:1002820002C0880F991F6A95E2F7822B88BB81E032
:10029200089525B381E090E002C0880F991F6A9506
:1002A200E2F7822B85BB81E0089522B381E090E0E2
:1002B20002C0880F991F6A95E2F7822B82BB81E008
:0E02C200089581E0089580E0089580E0089599
:1002D000CF93C82F482F441F4427441F64E081E078
:1002E0000E94E900C6FB442740F962E081E00E94D9
:1002F000E900C5FB442740F961E081E00E94E90084
:10030000C4FB442740F960E081E00E94E90040E03E
:1003100063E080E00E94E90041E062E080E00E944A
:10032000E90085E08A95F1F7000040E062E080E0B6
:100330000E94E9008FE193E00197F1F700C000000F
:10034000C3FB442740F964E081E00E94E900C2FB5E
:10035000442740F962E081E00E94E900C1FB4427A4
:1003600040F961E081E00E94E9004C2F417060E0BB
:1003700081E00E94E90041E062E080E00E94E90043
:1003800095E09A95F1F7000040E062E080E00E947D
:10039000E9008FE39FE10197F1F700C0000081E0E1
:0403A000CF9108955C
:1003A400CF93C82F482F441F4427441F64E081E0A3
:1003B4000E94E900C6FB442740F962E081E00E9404
:1003C400E900C5FB442740F961E081E00E94E900AF
:1003D400C4FB442740F960E081E00E94E90041E069
:1003E40063E080E00E94E90041E062E080E00E9476
:1003F400E90085E08A95F1F7000040E062E080E0E2
:100404000E94E9008FE193E00197F1F700C000003A
:10041400C3FB442740F964E081E00E94E900C2FB89
:10042400442740F962E081E00E94E900C1FB4427CF
:1004340040F961E081E00E94E9004C2F417060E0E6
:1004440081E00E94E90041E062E080E00E94E9006E
:1004540095E09A95F1F7000040E062E080E00E94A8
:10046400E9008FE39FE10197F1F700C0000081E00C
:04047400CF91089587
:1004780041E060E081E00E946A0041E061E081E0E3
:100488000E946A0041E062E081E00E946A0041E067
:1004980064E081E00E946A0041E063E080E00E943D
:1004A8006A0041E062E080E00E946A002FEF89EF75
:1004B80090E0215080409040E1F700C0000082E0C9
:1004C8000E94680188E20E9468018CE00E9468012D
:1004D80086E00E94680181E00E9468012FEF89EFA1
:1004E80090E0215080409040E1F700C0000081E09A
:0204F800089565
:1004FA001F920F920FB60F9211242F933F934F938F
:10050A005F936F937F938F939F93AF93BF93EF9371
:10051A00FF938091620090916300853C944059F466
:10052A00109261000E94030410926300109262000C
:10053A0081E080936400809162009091630001964B
:10054A009093630080936200FF91EF91BF91AF9106
:10055A009F918F917F916F915F914F913F912F91D1
:0A056A000F900FBE0F901F90189520
:10057400CF93DF9300D0CDB7DEB7CE0101960E94B2
:10058400D1038130C9F429813A812233310518F429
:100594001092610014C0A90142535109423351051C
:1005A40020F491E0909361000AC02536310530F0C3
:1005B40092E09093610003C080E001C080E00F905E
:0805C4000F90DF91CF91089523
:1005CC001092640080916000823011F00E940A0445
:1005DC0060E080E00E949E0364EC70E080E00E948A
:1005EC0071030E94140410926300109262000E9426
:0C05FC00FC0382E08093600081E0089521
:100608001092640080916000813011F40E940A0405
:1006180060E080E00E949E036EEA70E080E00E9445
:1006280071030E94140410926300109262000E94E9
:0A06380003041092600081E00895B1
:1006420080916000813039F00E940A040E94DB032D
:1006520081E08093600060E080E00E949E0368EB8E
:1006620070E080E00E94710380916400811102C0F9
:080672000E94FC0381E00895E1
:10067A0097B1907F97B997B1892B87B986B1877F50
:10068A0086B986B18F7D86B986B1806486B9369976
:10069A00FECF24B185B190E0982F8827822BFB01E9
:0806AA009183808381E0089533
:1006B2000E94BA0280916100811104C00E94040369
:1006C20081E00895813021F40E94210381E00895A0
:1006D200823021F40E94E60281E0089580E00895CC
:1006E200CF92DF92EF926B01E82E06C00E94D201F8
:1006F2008FEFC81AD80AE80AF6018491E7FC8081D4
:0E0702008111F4CF81E0EF90DF90CF90089549
:100710009FB7982B9FBF803829F40FB607FC08C0FD
:1007200080E00895811106C00FB607FE05C0089548
:0C07300081E0089580E0089581E00895C4
:10073C00813011F090E001C090E4823009F494E132
:10074C00833009F494E5643108F4960F80E8890F3E
:08075C000E94680181E008958C
:1007640087B18F7787B987B1806487B986B180688C
:1007740086B986B1846086B986B1826086B986B14D
:08078400816086B981E008954F
:10078C00EC010E9422040E942104CE010E94230449
:06079C00CE010E941F04C3
:1007A200BC0180E00E943D03882311F081E008959E
:0407B20080E0089546
:1007B60085E883BF81E089BF8CE482BF80E80E9420
:0407C6008803089507
:1007CA000E943C020E94F5030E94ED0381E0089515
:1007DA000E94B203882311F081E0089580E0089511
:0E07EA0041E065E080E00E946A0081E0089531
:0E07F80041E065E080E00E94E90081E00895A4
:0E08060040E065E080E00E94E90081E0089596
:0A08140081E00E94680181E0089570
:0A081E000E94E5030E941904FDCFBB
:0A08280013BE80E00E9488030895CB
:080832000E94590381E00895C2
:04083A000C9400001A
:04083E000E945500BF
:02084200089517
:02084400089515
:02084600089513
:00000001FF
